:020000040800F2
:10000000801D0020690200087102000845360008C2
:10001000493600087B300008413F0008000000001E
:100020000000000000000000000000007B0200084B
:100030007D020008000000007F02000875390008FA
:10004000830200088302000883020008830200087C
:10005000830200088302000883020008830200086C
:100060008302000883020008830200088130000830
:10007000830200088302000851310008830200084F
:10008000830200088302000883020008830200083C
:10009000830200088302000883020008830200082C
:1000A0008302000883020008830200080D3C000858
:1000B000830200088302000883020008830200080C
:1000C00083020008830200088302000883020008FC
:1000D00083020008830200088302000883020008EC
:1000E00083020008830200088302000800F002F87F
:1000F00000F09DF80AA090E8000C82448344AAF125
:100100000107DA4501D100F092F8AFF2090EBAE822
:100110000F0013F0010F18BFFB1A43F0010318473B
:10012000E07C0000007D00000A444FF0000C10F855
:10013000013B13F0070408BF10F8014B1D1108BF65
:1001400010F8015B641E05D010F8016B641E01F805
:10015000016BF9D113F0080F1EBF10F8014BAD1C55
:100160000C1B09D16D1E58BF01F801CBFAD505E073
:1001700014F8016B01F8016B6D1EF9D59142D6D3CD
:10018000704700000023002400250026103A28BFF5
:1001900078C1FBD8520728BF30C148BF0B607047F9
:1001A0006E2900F04781702900F01482662907F05B
:1001B0002482652907F02182672907F01E826129C0
:1001C00007F01D82692900F0F980642900F0F680AB
:1001D000752900F0F3806F2900F09E81782900F0E6
:1001E000EC810368DB0928BF41F08001632901F03D
:1001F0001281732901F01781E32901F02281002087
:1002000070471FB59DE8030001F032FC01F010FCBF
:1002100004000020002106F06BFC401C6060002000
:10022000002106F04FFCE0601FBD10B510BD01F0CD
:1002300037FF1146FFF7E5FF05F0ACFC02F096F939
:1002400003B4FFF7F2FF03BC02F020FA00B500BFD1
:1002500000BF00BF00BF00BD00B50248D0F800D00D
:100260004068004700F0FF1F0948804709480047E1
:10027000FEE7FEE7FEE7FEE7FEE7FEE7FEE7FEE756
:10028000FEE7FEE704480549054A064B70470000B3
:10029000953A0008ED00000880170020801D00201E
:1002A000801900208019002070B5A0FB0140B4F136
:1002B000805170F1000024BF002070BD204600F086
:1002C00057FC05001CBF214600F02DFC284670BDE0
:1002D0000FB41CB5074B06AA7B44694600900598ED
:1002E00001F077F80020694601F086F81CBC5DF843
:1002F00014FB00001D11000070B5044685690068FC
:10030000C10601D5302600E02026C00707D070BD09
:10031000D4E9012130469047206A401C20626D1EBE
:10032000F6D570BD70B5044685690078C00707D161
:1003300070BDD4E9012120209047206A401C206232
:100340006D1EF6D570BD09684A0501D540B27047EB
:10035000C905FCD500B2704709684A0501D5C0B28D
:100360007047C905FCD580B2704770B50C4605468C
:10037000012A05D02878800600D5EA69002302E02A
:10038000012305E05B1C934202D2E05C0028F9D116
:10039000A869E618C01AA861286A18442862284685
:1003A000FFF7AAFF04E0D5E9012114F8010B9047FB
:1003B000B442F8D32846FFF7B5FF70BD2DE9F041F0
:1003C0000646002410687529314616A510D0FFF79F
:1003D000BAFF002802DA404213A507E031688A0715
:1003E00001D512A502E0490704D511A5012401E0B9
:1003F000FFF7B2FF00210A2206F1240709E0B0FB53
:10040000F2FCB0FBF2F302FB1C00303078541846CB
:10041000491C0028F3D123462A463046BDE8F04166
:1004200000F0EDBB000000002D0000002B000000DC
:100430002000000011680268006A530501D50870A9
:100440000AE0D30501D5088006E0130603D5C217DC
:10045000C1E9000200E00860012070472DE9FF5F5C
:1004600015468A460446DFF8AC80F8440027D8E9F0
:1004700000103E46CDE9001010E03AF816106A462A
:1004800002A801F081FA411C07D02178890603D522
:10049000E269391891420DD80744761C207880060D
:1004A00002D5E069B84205DDAE42E6DB3AF8160057
:1004B0000028E2D1A069C01BA0612046FFF71CFF05
:1004C000D8E90010CDE90010002017E03AF8181024
:1004D0006A4602A801F058FAB0F1FF3F81460BD0FE
:1004E00000250DF1080B05E0D4E901211BF80500FA
:1004F00090476D1C4D45F7D308F10100B04280468E
:10050000E4DB206A384420622046FFF70BFFBDE899
:10051000FF9F00008A73000070B5044621461068F2
:10052000FFF71AFF002104F1240505E000F007029F
:100530003032C0086A54491C0028F7D120680023D3
:1005400008A2050708D500F02000084304D0E069A0
:10055000012305A2401EE0612046BDE8704000F086
:100560004EBB00000000000030000000F0B40D465B
:100570000188090502D51B4C7C4402E0194C7C44DF
:100580000E34002100F1240305E002F00F061209E9
:10059000A65D5E54491C002AF7D102780023120799
:1005A00004D5702D06D009B1022311342246F0BCC7
:1005B00000F025BB01231034F8E770B504460D4662
:1005C00021461068FFF7C8FE024629462046BDE8CE
:1005D0007040CBE70368126843F0200303600823F0
:1005E000C361C3E7847200002DE9F05F89460446C9
:1005F0004FF0000ADFF874B1FB44C0F820A0204699
:10060000E1688847002874D0252806D0D4E9012164
:100610009047206A401C2062F1E700265F46204692
:10062000E16888472028054607DB312D05D2781977
:1006300010F8200C08B10643F1E7B00701D526F009
:100640000406C4F81CA00027C4F818A02A2D09D05D
:10065000284603F0F2FC38B304EB8708303DC8F8B5
:10066000185019E059F8041B204604EB87029161E9
:10067000E1688847012F054618D1E069002820DA93
:1006800026F020061DE0D8F8180000EB800005EBEE
:1006900040003038C8F818002046E1688847054611
:1006A00003F0CBFC0028EED1012F0AD02E2D08D16B
:1006B0002046E16888477F1C0546022F46F0200649
:1006C000C4DBA069002803DA404246F00106A061BD
:1006D000F00701D026F010066C2D0BD0682D09D044
:1006E0004C2D39D06A2D35D0742D35D07A2D33D09C
:1006F00016E038E0E1682F4620468847B8420546B4
:1007000009D16C2F26D04FF48060E1680643204663
:100710008847054604E06C2F1AD04FF480700643DA
:100720000DB3A5F14100192802D8203546F4006622
:100730004A462946204626604E46FFF731FD80B1E5
:1007400001280BD0F61D26F0070000F1080956E736
:100750004020E4E78020D8E70020D6E706F104092E
:100760004DE7284652E7206ABDE8F09F2C72000052
:100770000FB400B58DB010A9099000910B904FF007
:10078000FF300A9000200C900648784406900648F6
:1007900078446A4607900F9909A801F0C5F80DB092
:1007A0005DF814FBBB110000D31100002DE9FF5FC1
:1007B0001D464FF0FF3B91464FF000085F46D5E9DC
:1007C0000146A96901987F1C8847296A82468847A3
:1007D0000028F6D1BAF1FF3F0CD0002E24F4C064FB
:1007E00019DD600614D5BAF12B0F09D0BAF12D0F1F
:1007F0000ED103E0584604B0BDE8F09F44F4806495
:10080000A96901987F1C8847761E8246002E02DD6A
:10081000BAF1300F03D0B9F1000F26D032E0A96948
:10082000761E01987F1C44F400748847002E82468F
:1008300005DDBAF1780F06D0BAF1580F03D0B9F13F
:10084000000F10D01EE0B9F1000F02D0B9F1100F67
:1008500018D1A969761E01987F1C24F4007488477A
:100860008246102002E0082000E00A20814609E0CC
:10087000A96908FB0908761E01987F1C44F40074DE
:1008800088478246002E05DD4946504600F0E5FDCA
:100890000028EDDAE96901988847A00502D46FF0D5
:1008A0000100A8E7E00725D1600613D5600502D551
:1008B000C8F1000000E0404629680A1D2A60096866
:1008C000220501D5087015E0220701D5088011E046
:1008D00008600FE02868011D29600068210502D525
:1008E00080F8008006E0210702D5A0F8008001E032
:1008F000C0F8008038467EE72DE9FF5F4FF0000822
:100900009946144646469169D2E901A7DDF838B008
:1009100001988847054659EA0B0005D009E0A1690E
:100920000198761C88470546216A28468847002892
:10093000F5D1681C03D05FEACA7005D015E04FF00E
:10094000FF3004B0BDE8F09F2068011D2160D0F8A1
:1009500000800AE05FEACA7001D108F8015BA16972
:10096000761C01987F1E88470546002F1ADD681CFB
:1009700018D0B9F1000F0DD0E81705EBD060421187
:1009800020F01F0059F822102A1A0120904001423D
:10099000E0D107E0BBF1000FDCD12846216A88478F
:1009A0000028D7D0E16901988847BBF1000F07D133
:1009B000002E05DD5FEACA7002D1002188F8001020
:1009C000A068B84203DDBBF1000F03D017B16FF090
:1009D0000100B6E73046B4E72DE9F04798461446E3
:1009E0000F468246DDF8209094B1012C0BD04A4688
:1009F0005046650805FB08763146904700280CD024
:100A00000DDA2C46F0E74A4639465046904710B179
:100A10000020BDE8F0873846FBE73046F9E7641B65
:100A2000641E06EB0807DFE72DE9F0410546904616
:100A30000E460020044600E0641C44450BD2285DAD
:100A400000F0D0F80746305D00F0CCF8381A02D13B
:100A5000295D0029F0D1BDE8F0812DE9F0410E4675
:100A60000546002400E0641C285D00F0BBF8074642
:100A7000305D00F0B7F8381A02D1295D0029F2D1B3
:100A8000BDE8F08110B5431C02E010F8011B71B104
:100A90008107FAD14FF0013202C88C1A8C4314EA54
:100AA000C211F9D0C01A0A0603D0C01E10BDC01A68
:100AB00010BD0A0401D0801E10BD0902FCD0401EEA
:100AC00010BD10B5203AC0F00B80B1E81850203AA4
:100AD000A0E81850B1E81850A0E81850BFF4F5AFDE
:100AE0005FEA027C24BFB1E81850A0E8185044BF68
:100AF00018C918C0BDE810405FEA827C24BF51F8D5
:100B0000043B40F8043B08BF7047D20728BF31F8C8
:100B1000023B48BF11F8012B28BF20F8023B48BF19
:100B200000F8012B70474FF000020429C0F012803A
:100B300010F0030C00F04A87CCF1040CBCF1020F5A
:100B400018BF00F8012BA8BF20F8022BA1EB0C0165
:100B500000F03CBF5FEAC17C24BF00F8012B00F825
:100B6000012B48BF00F8012B704770477047704752
:100B700070B5064600F058FF056806F10B0020F03E
:100B80000704B4429CBF002070BD2B466A68BAB10E
:100B90001068A04210D304F1080188423CBF50689D
:100BA000586007D35168101941601168091B016032
:100BB00058601460101D70BD13465268002AE7D1BA
:100BC0002146284600F040FF0028DED170BD10B558
:100BD00000F032FF006810BD10B5044600F02CFF95
:100BE000046010BD10B5044600F016FF0068005DFB
:100BF000C00602D504F1200010BD204610BD2DE92D
:100C0000F0470D4699469246044600F124080168D3
:100C1000880604D5E06921F01001216000E0012080
:100C2000A84201DD471B00E00027A1697A1902EB09
:100C30000900081AA0612078C00602D42046FFF7F8
:100C40005BFB002608E0D4E901211AF80600904772
:100C5000206A401C761C20624E45F4DB2078C006DA
:100C60000AD52046FFF748FB06E0D4E901213020F1
:100C70009047206A401C2062381EA7F10107F4DC6F
:100C800007E0D4E9012118F805009047206A401CCC
:100C90002062281EA5F10105F3DC2046FFF742FB88
:100CA0002078000602D50220BDE8F0870120FBE78E
:100CB00070472DE9FF4F0C461E464FF0FF378BB0B3
:100CC000D2E90001DDF860800A908A46C1F30A5536
:100CD00005B93D46002108464FF00000BAF1000F6B
:100CE00000F4400005DA00EB80004FF4400101EA17
:100CF00050004FEA9059B9F1010F00DDB9460A984A
:100D000050EA4A000ED044F61050A5F2FF35454394
:100D10002F14B8F1000F1ED07542291E1EDDC9F137
:100D200000021CE0B8F1010F4FF0000001D03021AB
:100D300003E0F24305E02154401CB042FBDB3046A7
:100D40000022002121540B99C1F80880C1E900203C
:100D50000FB0BDE8F08FBD1B6D1CDEE74A4600DA20
:100D6000694206A801F02AF906AB93E8070003AB35
:100D700083E8070050460A9901F0AEFC8DE80700B1
:100D8000A0F500501F3800900398002D09DD42F2B5
:100D90001F014A46084403A90390684601F037FF43
:100DA00008E0A0F500504A461F3803A903906846A2
:100DB00001F055FF8DE807000004000C03D04FF050
:100DC000FF30410800E01046B8F1000F03D00022C8
:100DD000009215461EE0751E05D400F0A6FE3032C6
:100DE00062556D1EF9D5B3460122084302D0002298
:100DF0007F1C04E02078302801D100227F1E002AC9
:100E0000099786D01DE0112D07DA00F08EFE3032F2
:100E100062556D1C50EA0102F5D1084302D00098DA
:100E2000C8B10EE00021681E05E0235C625C6354DB
:100E30002254401E491C8142F7DBAB46A81B401ED2
:100E40000990002004F80B000B98099AC0F808805C
:100E5000C0E9002B7CE711264FF0000859E72DE987
:100E6000F04F88460446D21D22F0070191B0D1E927
:100E70000001CDE90A0103F065F802460B98C00FA6
:100E800001D02D2007E02068810701D52B2002E04A
:100E9000202101EAC000032A099001D0072A05DBBE
:100EA00003464146204600F08FFE0BE12078800685
:100EB00001D5E06900E00620B8F1650F814606D053
:100EC000B8F1660F18D0B8F1670F70D131E000208B
:100ED000B9F1110F009001DB112301E009F10103C9
:100EE0000AAA01A90CA8FFF7E4FEDDE90C700026B0
:100EF00009F10105834647E001204B4600904FF081
:100F000000470AAA01A90CA8FFF7D3FEDDE90DB03E
:100F10000C995D46002610B909F101000D18B9EBD6
:100F2000050003D4C0F1FF3609F10105A5EB090066
:100F30002BE0B9F1010F01DA4FF001090020B9F1FE
:100F4000110F0090484601DD112300E003460AAA74
:100F500001A90CA8FFF7ADFEDDE90C704D46002697
:100F60008346207800070AD4AB4500DA5D4601A825
:100F7000012D04DD411911F8011C302907D04F451E
:100F800002DA17F1040F04DA012082460FE06D1E29
:100F9000EEE7002F02DCED1B3E4403E0781CA84284
:100FA00000DD7D1CB81B00F1010A4FF000472078DE
:100FB000000703D4AA4501DB4FF0FF3A0021B7F147
:100FC000004F0DF143088DF8431024D002202B234D
:100FD000002F01DA7F422D230A21021EA0F1010019
:100FE00000DC5FB197FBF1FC97FBF1F201FB1C7C8D
:100FF00017460CF1300C08F801CDEEE7A8F101001E
:1010000003702188090501D5452100E06521A0F183
:10101000010800F8011C09980FA9A1EB0807FF1DA2
:1010200000B10120411901EBEA70A1693844081AA6
:10103000401EA0612078C00602D42046FFF75CF96C
:10104000099828B1D4E901219047206A401C206208
:101050002078C00622D52046FFF74EF91EE0002E6C
:1010600004DBB34502DD01A8805D00E03020D4E957
:1010700001219047206A401C2062761CAAF10100E1
:101080005FEA000A0AD100F0D3FCC0680168405C46
:10109000D4E901219047206A401C2062281EA5F156
:1010A0000105DCDC07E0D4E9012118F8010B9047C9
:1010B000206A401C2062381EA7F10107F3DC20469D
:1010C000FFF730F9032011B043E600002DE9F04F9F
:1010D00004460D46D21D22F0070089B0D0E90092E7
:1010E00048461746394602F02DFF0246F80F01D058
:1010F0002D2307E02068810701D52B2302E0202162
:1011000001EAC0038DF820300BB1012000E000207F
:10111000032A824601D0072A04DB2946204600F034
:1011200053FD3DE12078800601D40D2500E0E569FE
:10113000C7F30A560D2D49DA00214FEA175B08461E
:101140004FF00000002F00F4400007DA00EB8000B1
:101150004FF4400100EBD07001EA600081150129D5
:1011600001DD4FF0FF3100224FEA850CBCF1180F72
:1011700006D31346ACF118004FF08052C24003E092
:101180004FF4801323FA0CF30CF10C0CBCF1200F7C
:1011900004D3ACF1200C09FA0CF001E007FA0CF0D2
:1011A00000294FF0004801DD18B90FE00ED140458D
:1011B0000CD319EB02095F4121B9404502D19F438D
:1011C00029EA0209BBEB175F00D0761C20880005D6
:1011D00002D57B48784402E079487844193808AA57
:1011E000302302F80A30037C0AF10101002E0AF1D3
:1011F000020A53546A4602DC4FF0300101E04FF01E
:1012000031014FF001088DF8001002D0A6F2FF3630
:1012100003E059EA470100D06A4E002D02DC217834
:10122000090704D54FF002082E218DF80110C4469D
:1012300000210BE0C7F303433F01C35C491C6D1E53
:1012400002F80830052908F1010801DA002DF1DC67
:1012500000210CE000EB1973491C1B786D1E082956
:1012600002F808304FEA091908F1010801DA002DE7
:10127000F0DC2178890602D514E0A8F10108E045E8
:1012800005DD02EB080111F8011C3029F5D0B8F199
:10129000000F07DD02EB080111F8011C2E2901D116
:1012A000A8F10108002D05DD3E2102F808106D1E91
:1012B00008F10108407C002E02F8080008F101083E
:1012C00004DA2D20764202F8080002E02B2002F812
:1012D00008000A214FF47A70864208F101080BDBFE
:1012E00096FBF0F3303302F8083096FBF0F308F188
:1012F000010800FB136601E0642E0CDB642096FB02
:10130000F0F3303302F8083096FBF0F308F10108EF
:1013100000FB136601E00A2E06DB96FBF1F030308D
:1013200002F8080008F1010896FBF1F001FB1060DB
:10133000303002F80800A16908F1010808EB050245
:1013400002EB0A00081AA0612078C00602D42046E9
:10135000FEF7D2FF216A08AE01EB0A00206204E02A
:10136000D4E9012116F8010B9047BAF1010AF7D22E
:101370002078C00602D52046FEF7BEFF6E4609E083
:1013800016F8010B3E280FD0D4E901219047206ABE
:10139000401C2062B8F10108F2D22046FEF7C2FFDD
:1013A00009B00320BDE8F08F206A2844206203E0E2
:1013B000D4E90121302090476D1EEBD3F8E70000FF
:1013C0007466000002FCFFFF01694A1C0261087894
:1013D000704700B58FB0CDE9013100210591054975
:1013E0007944CDE9031011466846FFF7FDF80FB0C8
:1013F00000BD0000E5FFFFFF0A6802F8010B0A606C
:10140000704710B5436913B1AFF3008001E0FEF7F8
:10141000ACFF012010BD127800F124010A700022F7
:101420004A700122EDE711684FF0FF32E9E710B58D
:10143000436913B1AFF3008001E0FFF70FF801201B
:1014400010BD128800F1240182840022C28401228E
:10145000EDE711684FF0FF32E9E73A2800D2303863
:1014600020F02002412A01D3A2F13700884201D3A3
:101470004FF0FF30704700002DE9FF4F064689B05E
:101480000878FF2806D0491C2D2805D000244FF0ED
:10149000000908E000200CE00124F8E709EB8903CB
:1014A000491C00EB43090878FF28F7D114B1C9F1B2
:1014B00000008146107800252C46AA4629462D2892
:1014C00001D02B2804D1521C2D2813D00020824695
:1014D0008B461078FF280FD04FF0000C0A21521CC9
:1014E000A5FB017804FB018105FB0C11C5194BEB31
:1014F0000104EEE70120EAE7002108464FF0000072
:10150000BAF1000F02D000EB80004008C0F3815810
:10151000B8F1010F01DD4FF0FF380C9809EB00071F
:1015200055EA040009D04FF0020917F5FA7F0BDAEB
:101530004FEACA70C6E900B012E04FEACA70C6E9C5
:1015400000B00DB0BDE8F08FB7F5FA7F0DDDF048C3
:101550007844D0E90010C6E9001040EACA70706013
:1015600000F06AFAC0F80090EBE7391E02DAC8F121
:10157000000200E0424600DA794206A800F01EFDB3
:1015800006AB93E8070003AB83E8070044F23E0094
:101590005BEA04010090584604D144F21E012C4637
:1015A0005D460091210C0904014306D100992404F1
:1015B00044EA15442D041039009104F07F410143A1
:1015C00006D10099240244EA15642D0208390091DD
:1015D00004F07041014306D10099240144EA1574D6
:1015E0002D01091F009104F04041014306D10099EB
:1015F000A40044EA9574AD00891E009104F00041F6
:10160000084304D100986D196441401E0090424681
:101610006846002FCDE9014503A902DD01F033FB47
:1016200001E001F008FBBAF1000F04460D4601D0BD
:1016300084F0004440F2FF7724F00040284303D0B8
:10164000C4F30A50B84212D100F0F6F9C0F8009085
:10165000C4F30A50B8420AD1AE487844D0E9001029
:10166000C6E9001004F000410843706069E7C6E96C
:10167000005466E72DE9FF4F1F464FF0000A4FF078
:10168000FF38454691B0D7E90146CDF83CA000F0BF
:10169000CFF9C0680168405C1090B96912986D1C60
:1016A0008847396A814688470028F6D1B9F1FF3F5B
:1016B0000AD0002E24F4D06411DDB9F12B0F08D02C
:1016C000B9F12D0F0BD102E0404615B03AE744F4D2
:1016D0008064B96912986D1C8847761E8146600542
:1016E00004A901D52D2000E02B20002E01F1010BD3
:1016F0000DF130088DF810003FDDB9F1690F08D009
:10170000B9F1490F05D0B9F16E0F02D0B9F14E0F02
:101710001CD13B4601A8009580E85002DDE9121279
:101720006FF0020005F0D1FFC11CCED10EE0B96907
:1017300012986D1C884781461398761E44F40074F5
:1017400005600F98401C002E0F9016DDB9F1300F88
:10175000EDD0B9F1780F02D0B9F1580F0DD10F9833
:1017600001280AD13B46CDE90054DDE91212001FE1
:10177000029605F0A8FFC11CA7D1109989453ED15A
:1017800044F0800406E01399681CAAF1010A44F4AD
:1017900000740860B9696D1C1298761E884730285D
:1017A0008146F0D02BE01099894505D1200603D45D
:1017B000761E44F0800418E0484602F03EFC08B370
:1017C000761E0DF123018B4544F4007408D2A9F173
:1017D00030000BF8010B200607D5AAF1010003E049
:1017E000200602D40AF101008246A00502D5139911
:1017F000681C0860B96912986D1C88478146002EE4
:10180000D1DC53E0002E51DDB9F1650F02D0B9F102
:10181000450F4BD1A00549D5B9696D1C1298761EAC
:1018200024F440748847002E81460CDD2B2804D018
:10183000B9F12D0F07D144F48074B96912986D1C69
:101840008847761E8146E00501D52D2100E02B2139
:1018500008F8011BCDF8008021E0761E0DF139015A
:10186000884544F400740CD2A9F1300010F0FF0058
:1018700088F8000002D10099884509D908F10108CB
:1018800006E0E00501D5244801E042F20F708246EF
:10189000B96912986D1C8847814613980560002E1F
:1018A00004DD484602F0C9FB0028D6D1F969129838
:1018B0008847FF2053468BF8000088F8000000207E
:1018C0000A900B9004AA0CA90AA8FFF7D5FDA00561
:1018D00002D46FF00100F8E614F0240F0AD0E007FC
:1018E00014D13868DDE90A12031D3B600068C0E9C5
:1018F00000120BE00AA9684602F048FBE00705D198
:101900003868009A011D3960006802602846DCE6EC
:10191000CC680000C2670000F1D8FFFF02681144E4
:101920001378016018467047D160054979445161C8
:1019300004497944116200211161114600F084B913
:10194000EDFFFFFF7F020000426842B1016811F81D
:10195000013B23B1521EC0E9001218467047012115
:10196000C160881E704742685AB1C368016843B9B4
:1019700083688B4205D0491E521CC0E9001200202A
:1019800070474FF0FF30704770B516460C4605465D
:1019900000F042F8036893F80101012806D0FF2CFB
:1019A0000FD8185D68B101202C7070BDD3F8070105
:1019B0003246214603F2071303442846BDE870402F
:1019C00018474FF0FF3070BD4FF0000200B51346CE
:1019D00094469646203922BFA0E80C50A0E80C504F
:1019E000B1F12001BFF4F7AF090728BFA0E80C5000
:1019F00048BF0CC05DF804EB890028BF40F8042BF9
:101A000008BF704748BF20F8022B11F0804F18BF65
:101A100000F8012B7047000010B500F009F8001D18
:101A200010BD00BFCD5000000048704724170020B3
:101A3000004870473C170020004870471C170020E2
:101A4000704770477047704738B504460A46002013
:101A50006946AFF30080002808BF38BD02460099F0
:101A6000204600F042FB012038BD012000F084BD7B
:101A7000F8B5AFF30080054600200C46102000BFEB
:101A80000646A819A0420DD9324669460020AFF398
:101A90000080070008BF00F06FFD0098A04218BF4B
:101AA0000546C419FFF7C0FF05600746F01D20F08A
:101AB00007004619284600F00AF8B44208BFF8BDEE
:101AC000A21B31463868BDE8F84000F00EBB00218B
:101AD0000160C0E9011070471020704770B50446DE
:101AE000051FFFF7A1FF0068002C14BF446870BDFC
:101AF000002C18BFAC423CBF20466468F8D3016894
:101B00000A18AA4218BF456003D12A680546114445
:101B1000016028684119A1421CBF6C6070BD6168FA
:101B2000696021680844286070BD30B5B0F10A02D0
:101B30004FEA900E71F100034EEA817EB0EB0E0089
:101B400061EB91014FEA101E4EEA017E10EB0E0090
:101B500041EB11114FEA102E4EEA016E10EB0E0010
:101B600041EB11214FEA104E4EEA014E10EB0E00F0
:101B700041EB1141401841F100014FEAD00040EA29
:101B800041704FEAD10110EB80054FEA810444EA2D
:101B9000907444EB01046D1944EB0404521BA341FF
:101BA0004FF0000348BF0A3200D530BD401C41F160
:101BB000000130BD10B50446FFF72EFF0068005D40
:101BC00000F0010010BD00002DE9F0411F46044661
:101BD00003260168072A01F4006004DB08B116A59A
:101BE00005E016A503E008B115A500E015A521F054
:101BF00010002060A069C01EA0610FB1401EA0614E
:101C00002046FEF779FB4FB1D4E9012138469047D1
:101C1000206A401C2062C01C206206E0206AFAE7AD
:101C2000D4E9012115F8010B9047761EF8D2204621
:101C3000FEF778FBBDE8F0814E414E006E616E000C
:101C4000494E4600696E66002DE9F34F4FF0000AD9
:101C50000C4656468DB001200C9001F10C000B9003
:101C600062690B980121904705002DD0252D2CD0BD
:101C7000216A8847C0B162690B9801219047216AA7
:101C800088470028F7D16269411E0B98904700E011
:101C9000761CA1690D988847216A88470028F7D1EA
:101CA000E1690D988847DBE7A1690D988847A8424C
:101CB000074601D1761CD3E7E1690D9888477F1C60
:101CC00002D1BAF1000F6FD06BE162690B98002767
:101CD0003D46394690472A2804D162690B98012174
:101CE00090470125DFF8D08262690B980121904767
:101CF000A0F130010A290AD24745E5DC07EB87014C
:101D000000EB4107303FDFD445F01005ECE7E90672
:101D100001D46FF000476C280AD04C2814D06828F2
:101D200015D06A280DD074281CD07A281AD01DE04E
:101D300062690B98012190476C2802D045F0040598
:101D400014E045F002050DE045F020050AE0626967
:101D50000B9801219047682802D045F0080505E05E
:101D600045F4006562690B9801219047C4E9015769
:101D700065283DD019DC58287AD00CDC452837D0AE
:101D800004DC252826D041289ED131E046282FD0DA
:101D9000472899D12CE05B2877D0612828D0632888
:101DA0007CD0642823D15AE0F6E06F2848D008DCC4
:101DB00066281DD067281BD0692821D06E2816D12F
:101DC00027E0702845D0732868D0752847D0782838
:101DD0000DD14DE0A1690D988847252805463FF4AF
:101DE00069AFE1690D9888476D1C3FF46AAFD8E090
:101DF0000D9923466A466FF0010005F062FCC5E0CC
:101E000045F0400023464FF000026060A80736D43A
:101E10003EE0E8077FF447AF2068011D21600068BD
:101E2000290501D506701BE7290701D5068017E7AC
:101E3000A90703D5F117C0E9006111E706600FE7B4
:101E400045F0400023464FF008026060A80716D412
:101E50001EE040F60E0125EA0100606016E045F044
:101E6000400023464FF00A026060A80707D40FE045
:101E700045F040006060A80708D5234610220D9960
:101E80006FF00100AFF3008080E007E010222346EE
:101E90000D996FF00100FEF789FC77E04FF0000923
:101EA00063284F46C8464B46CB4602D05B2806D037
:101EB00038E0E80601D40120A060012732E0626921
:101EC000D4F80CB00B98012190475E2807D14FF051
:101ED000010949466269D4F80CB00B989047216912
:101EE00039B900210A4603AB43F82120491C0829CF
:101EF000FADBD8B3216949B308F1010862690B988C
:101F0000012190475D28F4D1B9F1000F09D00020DC
:101F100003A951F82020D24341F82020401C082872
:101F2000F7DB03AB2069002820794FEA40701ED010
:101F30005B462246CDF80080CDE901970D99002837
:101F40006FF0010020DAAFF300801FE0C11703AA91
:101F500000EBD1614B1121F01F0102EB8302411A0A
:101F600013680120884003431360C7E719E00D9907
:101F7000224600286FF00100009702DAAFF30080DC
:101F800004E0FEF7B9FC01E0AFF3008000280ADAB4
:101F9000401C06D10C9820B14FF0FF300FB0BDE8C7
:101FA000F08F5046FAE7E90701D10AF1010A064429
:101FB00000200C9054E60000CCCCCC0C2DE9F0476E
:101FC000814616468AB0334878440DC88DE80D0026
:101FD00030487844801C03AC0DC884E80D0041F6FD
:101FE0009B300844372190FBF1F290FBF1F5A5F10D
:101FF000800501FB12041B3C02D56442012000E075
:102000000020DFF890A080460027FA44AAF1BE0A1B
:102010000DE0E00709D03246684607EB47010AEBBE
:10202000810100F01CFE8DE8070064107F1C002C6D
:10203000EFD1184F7F44AC3F18E0E80714D007EB0E
:1020400004100DF1180A90E80E008AE80E00C0682E
:10205000F04201D198190890324606A903A800F071
:10206000FEFD03AB83E807006D10641C002DE4D176
:1020700032466946B8F1000F03A802D000F0C7FD50
:1020800001E000F0ECFDC9E90001C9F808200AB040
:10209000BDE8F08710590000004870471C17002069
:1020A0007546FFF7F9FFAE4605006946534620F036
:1020B0000700854618B020B5FEF7E4F8BDE82040DB
:1020C0004FF000064FF000074FF000084FF0000BF4
:1020D00021F00701AC46ACE8C009ACE8C009ACE8A7
:1020E000C009ACE8C0098D467047034640688C467D
:1020F000002818BF88423CBF03464068F8D31868E0
:102100001844884207D00CF1030020F00700001D9E
:10211000411A521A0146081D0A60FFF7DFBC000091
:102120002DE9FF4F1F464FF03C0987B04FF00042AA
:10213000DDE9141001F10108DDF858A002EA405071
:102140000390002004908346054604460590B96933
:10215000461E08988847AAF1010A0290BAF1000FBA
:1021600037DD02982E2815D01021FFF776F90028C8
:102170002ADB4FF0010B0499014316D0B9F1000F8F
:102180000BDB4A46C11700F040FA05430C43A9F1A6
:10219000040905E00120059007E008B145F00105BC
:1021A00001200490059800B9361DB969089808F116
:1021B00001088847BBF1000FAAF1010A0290CDD0B7
:1021C0000999C1F80080C9E70298702808D0502802
:1021D00006D0F96908988847BBF1000F14D04FE08A
:1021E000002002900120BBF1000F049009D0B969D2
:1021F000089808F101088847AAF10109B9F1000F10
:1022000007DCF969089888476FF001000BB0BDE85A
:10221000F08F2B2804D02D280CD14FF0FF300490E4
:10222000B969089808F101088847A9F10109B9F1CD
:10223000000FE6DD411CE4D00A21FFF70EF900286B
:10224000DFDB029908F1010801EB810100EB41009D
:102250000290B969089888470A21FFF7FEF8099AA1
:10226000A9F10109B9F1000FC2F8008001DD0028D1
:10227000E7DAF969089888470499029800FB016633
:1022800055EA040004D004F04041090002D006E001
:10229000039898E0A40044EA9574AD00B61E04F0DB
:1022A0000041080002D16D196441761E159810F0A6
:1022B000240F03D04FF00B095C4803E04FF02809CE
:1022C0006FF07D008246564507DAAAEB0601894485
:1022D000B9F1410F01DD4FF0410901200021A9F1C1
:1022E000010200F092F9024628400B4621400843C3
:1022F00001D0012100E00021501E029143F1FF3185
:1023000028402140084301D0012000E0002002992C
:10231000834651EA0B014FD0002108464FF00000E0
:10232000039900F4400039B100EB80004FF4400104
:1023300000EBD07001EA60008015012802DD4FF04B
:10234000FF3000E013D0401C36D0029860B3BBF1E0
:10235000000F0CD14A460120002100F056F9284018
:102360002140084301D0012000E00020E0B101201D
:102370004A46002100F049F9034640190A466141E6
:102380002D1A8C4111D3B9F1400F09DD159810F0C9
:10239000240F02D0AAF1340603E0AAF1170600E0E8
:1023A000761C00254FF0004406E05B1E42F1FF3230
:1023B00020EA030521EA0204CAF10100B04206DA6C
:1023C0001B49039808430190002000900EE0039AF7
:1023D000C4F3D321E80A0A43164940EA44500A43A9
:1023E0003146CDE90002684601F01CFE159810F058
:1023F000240F0BD01598C00715D13868DDE90012FD
:10240000031D3B600068C0E900120CE002A86946A9
:1024100001F0BCFD1598C00705D13868029A011D6E
:102420003960006802604046F0E6000002FCFFFFF1
:102430000000F07F0000F03F2DE9FF4F92461D465F
:1024400085B04FF00041DDE9124BDDE914727F1ECB
:1024500001EA4B50414940F0FF4940EA01080021A0
:1024600022F020004928049102D04E2828D04CE0C8
:102470003BA0012607C88DE80700A9690698641CDF
:1024800088477F1E014606D41DF8060018B121F0CA
:10249000200181420BD0E96906988847032E34D089
:1024A000082E32D06FF0010009B0BDE8F08F761C25
:1024B000032E01D0082EE0D1601CCAF80000DCE732
:1024C000A9690698641C88477F1E2AD420F0200042
:1024D000412826D1A9690698641C88477F1E20D40C
:1024E00020F020004E281CD1A9690698641C88475A
:1024F0007F1E48F4002849F48009CAF8004001D43E
:10250000282806D0E969069888475FEACB7012D080
:1025100022E0A9690698641C88477F1E01D4002820
:1025200003DAE96906988847BCE72928F1D1641CD9
:10253000CAF80040E9E71BF0240F07D02868049987
:10254000031D2B600068C0E9001805E02868021D23
:102550002A600068C0F800902046A5E70000F07FE0
:10256000494E46494E495459000000000446AFF315
:1025700000802046FDF764FE10B500F05FF8BDE86E
:10258000104000F055B800004FF0013C50F8042B0B
:1025900051F8043B9A4221D1A2EB0C03934313EA76
:1025A000CC1317D150F8042B51F8043B9A4215D1A3
:1025B000A2EB0C03934313EACC130BD150F8042B7A
:1025C00051F8043B9A4209D1A2EB0C03934313EA5E
:1025D000CC13DBD04FF00000704700BFD01A01BA17
:1025E000B1FA81F101F0180122FA01F0CB40C1F1FA
:1025F0002001DBB2C0B2C01A2CFA01F3D11A914308
:1026000011EAC311E6D170477047B2F120030AD531
:10261000C2F1200301FA02F120FA03F300FA02F0FA
:1026200041EA0301704700FA03F14FF000007047E0
:10263000002801D000F02AB87047000010B501282A
:1026400005D0002103A000F027F8012010BD09A14A
:10265000F8E7000053494752544D454D3A204F7515
:1026600074206F662068656170206D656D6F72798A
:10267000000000003A2048656170206D656D6F7242
:102680007920636F72727570746564000149182057
:10269000ABBEFEE72600020070B505460C460A20D8
:1026A00000E06D1C00F011F835B128780028F8D151
:1026B00002E0641C00F009F814B120780028F8D179
:1026C000BDE870400A20AFF3008008B569468DF878
:1026D00000000320ABBE08BD5FEA400C08BF91F0CC
:1026E000000F4FEA8C234FEAC12243EA51514FEACF
:1026F0001C5018BF00F5F0404FEA300018BF41F001
:1027000000415FEA6C5C00F02980BCF1FF3F08BF2C
:1027100040F080407047130C06BF12044FF0100CBD
:102720004FF0000C130E04BF12020CF1080C130F33
:1027300004BF12010CF1040C930F04BF92000CF1C2
:10274000020CD30F04BF52000CF1010C11464FF0E4
:102750000002A0F11F00A0EB0C00704711F0004F29
:1027600008BF704731F000413FF4D5AF0B0C06BFF6
:1027700009044FF0100C4FF0000C0B0E04BF0902BF
:102780000CF1080C0B0F04BF09010CF1040C8B0FAA
:1027900004BF89000CF1020CCB0F04BF49000CF1FF
:1027A000010CCCF12003A0EB0C0022FA03F302FA97
:1027B0000CF241EA030100F10100704720F07F4C68
:1027C00080EA030023F07F47ACEB070303F57C535B
:1027D00000F0004003F1FF032DE980494FEA154B5B
:1027E00009B44FEA144325EA0B4E24EA03480FF2DA
:1027F000042606EB132749083E785FEA320203FB02
:102800000667C7F5000707FB06F64FEA54374FEA9D
:10281000D64606F1020607FB066CCCF1005C4FEAD7
:102820001C472CEA074C07FB06F40CFB06F504EBEF
:1028300015464FEA961634BF00204FF000404FEA8D
:10284000D13706FB07FC4FEA1C4C0CFB0BF7D21BE5
:1028500003FB0CF761EB07010CFB0EF7B0EB074035
:1028600072EB17420CFB08F734BFA2EB0742B2EB46
:10287000074261EB17414FEA0C444FEA910706FB10
:1028800007FC4FEA1C4C0CFB0BF7B0EBC74072EB9C
:10289000573203FB0CF734BFA2EBC742B2EBC7427F
:1028A00061EB57310CFB0EF7B0EBC70072EB5772C0
:1028B0000CFB08F734BFA2EBC702B2EBC70261EB17
:1028C0005771039F4FEA816141EA921104EBCC04F6
:1028D0004FEAD1374FEA826206FB07FC42EA9012C8
:1028E0004FEA80604FEA1C4C0CFB0BF7D21B03FB3A
:1028F0000CF761EB07010CFB0EF7B0EB074072EB36
:1029000017420CFB08F734BFA2EB0742B2EB0742B9
:1029100061EB17414FEA8C554FEA910704EB9C2479
:1029200006FB07FC4FEA1C4C0CFB0BF7B0EBC74057
:1029300072EB573203FB0CF734BFA2EBC742B2EB8A
:10294000C74261EB57310CFB0EF7B0EBC70072EBDF
:1029500057720CFB08F734BFA2EBC702B2EBC702F9
:1029600061EB577115EB4C254FEA816141EA9211F9
:102970004FEA82624FEAD13742EA901206FB07FC27
:1029800044F100044FEA80604FEA1C4C0CFB0BF74B
:10299000D21B03FB0CF761EB07010CFB0EF7B0EB4E
:1029A000074072EB17420CFB08F734BFA2EB07425B
:1029B000B2EB074261EB174115EB1C154FEA813171
:1029C00041EA92414FEA823242EA90424FEA803035
:1029D0004FEA0C7644F1000448EA03434EEA0B4800
:1029E0004FF0000EB2EB080C71EB030724BF6246F8
:1029F00039464EEB0E0E4FF0000B00185241494184
:102A00004BEB0B0BB2EB080C71EB03077BF1000BEC
:102A100024BF624639464EEB0E0E4FF0000B0018F5
:102A2000524149414BEB0B0BB2EB080C71EB030726
:102A30007BF1000B24BF624639464EEB0E0E51EA85
:102A4000020718BF46F0010616EB0E7655F100029C
:102A500054F1000103D5BDE88901BDE80088BDE857
:102A60008901BDE80048B619524141EB0101A3F1CB
:102A70000103704780807F7E7D7C7B7A79787776D2
:102A800076757473727171706F6E6E6D6C6C6B6A4B
:102A90006A696868676666656464636362616160E9
:102AA000605F5F5E5E5D5D5C5C5B5B5A5A59595866
:102AB00058575756565555555454535352525251D0
:102AC000515050504F4F4F4E4E4D4D4D4C4C4C4B26
:102AD0004B4B4A4A4A49494948484847474747466D
:102AE00046464545454444444443434343424242A9
:102AF0004241414146EA0646A3F570534FEA164665
:102B000046EA42564FEAD22242EA415210B54FEA13
:102B1000D121A3F1010300F017F820F0004000F1EB
:102B2000010C00F0004701EB00501146BCF5006FAE
:102B300040EA070000D210BD02484FF0000140EA11
:102B4000070010BD0000F07F002B26D4770021D0B5
:102B50001CB54FEA370703B44FF010004FF01001D7
:102B60004FF000000FBCBDE810400BF1010BBBF1B2
:102B7000010F08BF5FEA170722BF12F1010211F12E
:102B800001014FF0004143F1000300F0004043EA2F
:102B900000007047F9D35708DAE746EA064613F112
:102BA000400F4FEA16461FDD13F1200FDFBF16431B
:102BB0000A46002120335B42C8D0C3F1200746EA11
:102BC000064602FA07F74FEA164646EA0706C3F139
:102BD000200722FA03F201FA07F721FA03F14FF076
:102BE000000342EA0702B1E746EA020646EA064661
:102BF0004FEA164646EA0106BCBF46EA0646360CD0
:102C00004FF000034FF000024FF000019EE72DE966
:102C1000C048934630B491E8380007C831EA400C08
:102C200048BF34EA430C03D5FFF7C8FDFFF78CFF1C
:102C3000F0BCBDE800882DE9C048934630B491E867
:102C4000380007C831EA400C48BF34EA430C03D5CA
:102C5000FFF7B4FDFFF74EFFF0BCBDE800882DE99B
:102C6000C048934630B491E8380007C810F0804F50
:102C700008BF13F0804F03D100F019F8FFF764FF8D
:102C8000F0BCBDE800882DE9C048934630B491E817
:102C9000380007C810F0804F08BF13F0804F03D1F1
:102CA00000F005F8FFF726FFF0BCBDE8008820F033
:102CB0007F4780EA030023F07F4C07EB0C03A3F56A
:102CC0007C5300F00040A3F1FE0392F0000F00F0EF
:102CD000B38095F0000F00F077802DE901494FEAAD
:102CE00011404FEA144621EA004800FB06FC24EAA2
:102CF000064708FB06F607FB08F800FB07F718EB8A
:102D000006484CEB164C4FEA124B18EB07484FEABB
:102D100015464CEB174022EA0B4E0BFB06FC25EA4E
:102D200006470EFB06F607FB0EFE0BFB07F71EEB36
:102D3000064E4CEB164C4FF000061EEB074E4CEBCC
:102D4000174B18EB0B0840F1000018EB0E0B58EB7B
:102D5000000840F100008F1A4FF000013CBFC9434A
:102D6000661B14BFB5EB040C00213CBFC943F61B26
:102D70004FEA17444EEA8E0E27EA04454FEA1C47F5
:102D800004FB07622CEA074C05FB07F70CFB05F672
:102D900004FB0CFC16EB074642EB174216EB0C4605
:102DA00042EB1C421BEB060658EB0202414146EA8D
:102DB0009E0601D5BDE80189B619524141EB0101DA
:102DC000A3F10103BDE801894FEA14454FEA114719
:102DD00024EA054621EA074C05FB07F406FB07F742
:102DE0000CFB06F105FB0CFC11EB074144EB17440F
:102DF0004FEA124711EB0C4144EB1C4422EA074C0A
:102E000005FB07F206FB07F70CFB06F605FB0CFCBF
:102E100016EB074642EB174216EB0C4642EB1C45FD
:102E20006A1854F1000148BF7047B619524141EB8E
:102E30000101A3F10103704795F0000F37D04FEA6D
:102E400011424FEA144721EA024624EA074C02FBEA
:102E500007F106FB07F70CFB06F402FB0CFC14EB76
:102E6000074441EB17414FEA154714EB0C4441EB83
:102E70001C4125EA074C02FB07F506FB07F70CFB94
:102E800006F602FB0CFC16EB074645EB174516EB66
:102E90000C4645EB1C42121951F1000148BF704726
:102EA000B619524141EB0101A3F1010370474FEA0A
:102EB00014454FEA114724EA054621EA074C05FB71
:102EC00007F106FB07F70CFB06F24FF0000605FBC7
:102ED0000CFC12EB074241EB174112EB0C4251EB99
:102EE0001C4148BF7047921841EB0101A3F1010357
:102EF000704721B1826842F00102826003E082687B
:102F000022F001028260704721B1826842F480722F
:102F1000826003E0826822F480728260704701461A
:102F200000208A6802F004020AB1012000E00020BB
:102F30007047014600208A6802F008020AB10120A9
:102F400000E000207047000030B50246002000235A
:102F500050680F4C20400D790C6844EA052420434A
:102F6000506090680B4C2040D1E902542C434D79BD
:102F700044EA450420439060D06A20F470000C7C41
:102F8000641EE4B2234340EA0350D06230BD000027
:102F9000FFFEF0FFFDF7F1FFF0B504460D460020FF
:102FA0000021092D11DDE068A5F10A0606EB4607B0
:102FB000072606FA07F18843A5F10A0606EB46063E
:102FC00003FA06F10843E0600CE0206905EB4507D1
:102FD000072606FA07F1884305EB450603FA06F1D2
:102FE00008432061072A0FDA606B561E06EB86073E
:102FF0001F2606FA07F18843561E06EB860605FAD9
:1030000006F10843606322E00D2A0FDA206BD61F19
:1030100006EB86071F2606FA07F18843D61F06EB44
:10302000860605FA06F10843206310E0E06AA2F183
:103030000D0606EB86071F2606FA07F18843A2F164
:103040000D0606EB860605FA06F10843E062F0BDC0
:10305000816841F008018160704721B1826842F4C3
:10306000A002826003E0826822F4A00282607047BE
:10307000816841F004018160704700BFFEE70000F5
:1030800070B52E4A10682E4D80071BD52D48038839
:10309000818884891944038923441944038A194483
:1030A0004B000A21B3FBF1F3EB624388C488C68965
:1030B00023444489408A3444234418444000B0FBEC
:1030C000F1F0A862032050601F4801780024A9B1E4
:1030D0000178022912D0007804280FD0E86A01266E
:1030E000FA2817DD95F8390088B1686B052811DDDD
:1030F00085F83940022003F019FA0BE005F8384F43
:103100006C70BDE8704000211048FFF7A6BF6C63EB
:1031100085F83960A86AFA280FDD95F8380048B1BB
:10312000286B052809DD85F83840BDE8704001208E
:1031300003F0FCB92C6385F8386070BD00000240D4
:1031400028000020E8020020760200200024014030
:1031500010B54FF4005000F011F80021054800F0C0
:103160001BF8054801684068814201D003F07CF9F2
:1031700010BD0000440002400816002000F08051FD
:1031800011B10349086001E002494860704700003E
:10319000040402400000024021B1026842F0010232
:1031A000026004E002684FF6FE731A400260704746
:1031B00001684FF6FE72114001600021016041601C
:1031C0008160C1604B49884208D14A490839496841
:1031D00041F00F01474A083A51608AE045491431ED
:1031E000884208D143490839496841F0F001414A11
:1031F000083A51607DE03F492831884208D13D4975
:103200000839496841F470613A4A083A516070E0FF
:1032100038493C31884208D136490839496841F477
:103220007041344A083A516063E032495031884273
:1032300008D130490839496841F470212D4A083ACB
:10324000516056E02B496431884208D12949083938
:10325000496841F47001274A083A516049E025491C
:103260007831884208D123490839496841F07061B2
:10327000204A083A51603CE01F49884206D1011FAC
:10328000096841F00F01021F116032E01A49143140
:10329000884208D11849091F096841F0F001164A0F
:1032A000121F116025E014492831884208D11249C3
:1032B000091F096841F470610F4A121F116018E07C
:1032C0000D493C31884208D10B49091F096841F476
:1032D0007041094A121F11600BE0074950318842C2
:1032E00007D10549091F096841F47021024A121FDC
:1032F0001160704708000240080402400146486817
:1033000080B270471AB103680B43036002E00368A0
:103310008B430360704710B50022026847F6F073D4
:103320009A430C6A8B6823430C6923434C692343FB
:103330008C692343CC6923434C6A23438C6A23431F
:103340001A430260CB6843600B6883604B68C360BC
:1033500010BD00000149C860704700000020024015
:1033600030B5044604254FF4302000F085F80546BA
:10337000042D17D10C48006940F002000A49086189
:1033800008464461006940F0400008614FF4302075
:1033900000F072F805460448006941F6FD710840E6
:1033A00001490861284630BD0020024004200B4935
:1033B000C96801F0010109B101200EE00749C9689F
:1033C00001F0040109B1022007E00449C96801F0D5
:1033D000100109B1032000E00420704700200240E2
:1033E0000348006940F0800001490861704700000F
:1033F0000020024078B506460C46042500200090C7
:10340000E80200F039F80546042D24D1134800697C
:1034100040F00100114908613480E80200F02CF806
:103420000546042D10D1B01C0090200C0099088096
:10343000E80200F021F805460848006941F6FE71EF
:1034400008400649086106E00448006941F6FE713B
:10345000084002490861284678BD0000002002406B
:1034600002480349486003484860704723016745A4
:1034700000200240AB89EFCD00B502460423FFF7E0
:1034800095FF034603E0FFF791FF0346521E012B11
:1034900001D1002AF7D102B90523184600BD2DE954
:1034A000F0410246002500260020002300240027CA
:1034B00091F803C00CF00F0591F803C00CF0100C4C
:1034C000BCF1000F03D091F802C04CEA050591F859
:1034D00000C0BCF1000F31D0146800202BE04FF089
:1034E000010C0CFA00F3B1F800C00CEA03069E428E
:1034F00020D183004FF00F0C0CFA03F7BC4305FA00
:1035000003FC4CEA040491F803C0BCF1280F06D177
:103510004FF0010C0CFA00FCC2F814C00AE091F85C
:1035200003C0BCF1480F05D14FF0010C0CFA00FCB0
:10353000C2F810C0401C0828D1D31460B1F800C0F4
:10354000BCF1FF0F34DD546800202EE000F1080CC0
:103550004FF0010808FA0CF3B1F800C00CEA0306BA
:103560009E4221D183004FF00F0C0CFA03F7BC43AD
:1035700005FA03FC4CEA040491F803C0BCF1280FDF
:1035800005D100F1080C08FA0CF8C2F8148091F883
:1035900003C0BCF1480F07D100F1080C4FF001083F
:1035A00008FA0CF8C2F81080401C0828CED35460EA
:1035B000BDE8F081F0B50A46002300240021002573
:1035C00000F00046B6F1004F02D11D4EF16901E056
:1035D0001B4E7168C0F3034583B200F44016B6F584
:1035E000401F08D121F07061154E766826F0706694
:1035F000134F7E6012E000F48016B6F5801F06D1EE
:10360000032606FA05F4A14341F0706106E0460D79
:10361000360103FA06F6B14341F0706122B1460D5E
:10362000360103FA06F6314300F00046B6F1004FCA
:1036300002D1034EF16101E0014E7160F0BD000066
:103640000000014000BFFEE700BFFEE770B50021AB
:1036500000230F22C47804B3154C246804F4E064FA
:10366000C4F5E064210AC1F10403CA40447804FAB5
:1036700003F184781440214309010E4C0678A155CA
:10368000047804F01F050124AC4005786D11AD00ED
:1036900005F1E025C5F8004109E0047804F01F05B4
:1036A0000124AC40044D0678761145F8264070BDE3
:1036B0000CED00E000E400E080E100E010B500283F
:1036C00007DA0A07140E054A00F00F031B1FD45433
:1036D00003E00A07130E024A135410BD18ED00E070
:1036E00000E400E001460020034A506820F4404016
:1036F00008435060704700000010024029B1064A9C
:1037000052690243044B5A6104E0034A52698243FE
:10371000014B5A61704700000010024029B1064A6F
:10372000D2690243044BDA6104E0034AD26982435E
:10373000014BDA61704700000010024029B1064ACF
:1037400092690243044B9A6104E0034A92698243FE
:10375000014B9A6170470000001002400348406A24
:1037600040F080700149486270470000001002403C
:1037700030B500210022002400232D4D6D6805F096
:103780000C0121B1042905D0082923D105E0294DD8
:10379000056022E0274D05601FE0254D6D6805F4AA
:1037A0007012234D6D6805F48034022505EB9242BA
:1037B0001CB9214D554305600BE01D4D6D6805F4A6
:1037C00000351DB11C4D5543056002E0194D5543B0
:1037D000056002E0174D056000BF00BF144D6D6825
:1037E00005F0F0010909154D6B5C0568DD40456089
:1037F0000F4D6D6805F4E061090A104D6B5C45687A
:10380000DD4085600A4D6D6805F46051C90A0B4DB5
:103810006B5C4568DD40C560054D6D6805F4404151
:10382000890B074D6B5CC568B5FBF3F5056130BDD1
:103830000010024000127A0000093D000000002044
:103840001000002010B501460022002300204A117C
:10385000012A02D1094C236806E0022A02D1074C52
:10386000236A01E0054C636A01F01F0201249440C1
:103870001C400CB1012000E0002010BD00100240EF
:1038800001490860704700000000424210B500F096
:1038900001F810BD0CB5002001900090334800687D
:1038A00040F480303149086000BF3048006800F4BF
:1038B000003000900198401C0190009818B90198C0
:1038C000B0F5A06FF1D12948006800F4003010B1C4
:1038D0000120009001E0002000900098012843D1D1
:1038E0002348006840F0100021490860084600683D
:1038F00020F0030008600846006840F002000860FD
:103900001A484068194948600846406848600846B7
:10391000406840F4806048600846406820F47C10AD
:1039200048600846406840F4E8104860084600686F
:1039300040F08070086000BF0C48006800F0007024
:103940000028F9D00948406820F003000749486082
:103950000846406840F00200486000BF03484068E5
:1039600000F00C000828F9D10CBD00000010024046
:10397000002002402DE9F04102F0C0FB344800680D
:1039800003F0E0FB0446334903F03CFC3249086095
:1039900032490968324A1268881A03F0D3FB044698
:1039A00030480168204603F02DFC2F4908602F495C
:1039B00009682B4A1268881A03F0C4FB0446294898
:1039C0000168204603F01EFC294908602948006868
:1039D0006421B0FBF1F201FB120018B903F010F8FA
:1039E00000F040FC2448006803F0C4FB064623486E
:1039F000006803F0BFFB074621490968214A1268A5
:103A0000881A03F0B7FB80461F4903F0FBFB05460D
:103A1000394603F0F7FB0446314603F061FA1B49CF
:103A200008601748006817490860002012490860BC
:103A30001748007810B900F051FF01E000F036FCA3
:103A40000C480068401C0B490860BDE8F08100008C
:103A50004C0000209C65CA33A002002044000020D6
:103A6000400000202800002098020020480000208C
:103A70009C0200208C0200207002002068020020BE
:103A80006C020020900200200000C8429402002036
:103A9000B502002010B51348006840F0010011493C
:103AA000086008464068104908400E4948600846CA
:103AB00000680E4908400B4908600846006820F479
:103AC000802008600846406820F4FE0048604FF4FB
:103AD0001F008860FFF7DAFE4FF0006004490860BD
:103AE00010BD0000001002400000FFF8FFFFF6FECE
:103AF00008ED00E0F0B50C46154600220021068CCA
:103B00004FF6FE773E400684028B018C4FF60C7612
:103B100032407E1C06EA03162E433243104EB0425A
:103B20000ED0104EB0420BD0B0F1804F08D00E4EE8
:103B3000B04205D00D4EB04202D00D4EB04206D17B
:103B40004FF6FD76314044F00106314305E04FF673
:103B5000F576314044F00106314302830184F0BD23
:103B6000002C0140003401400004004000080040E7
:103B7000000C0040F0B50C4615460022002100263E
:103B8000078C4FF6EF7C07EA0C070784028B018C49
:103B90004FF6FF7707EA041640F6FF473A404FF624
:103BA000FF7707EA03373A434FF6FF7707EA05271F
:103BB0003A43114FB8420ED0104FB8420BD0B0F17B
:103BC000804F08D00E4FB84205D00E4FB84202D0F9
:103BD0000D4FB84206D14FF6DF77394046F0100757
:103BE000394305E04FF65F77394044F01007394319
:103BF00002830184F0BD0000002C0140003401402C
:103C00000004004000080040000C004070B5194856
:103C10000088012121EA9006164824300588001DFD
:103C200004881548007848B9012E07D1281BB0F543
:103C3000F07F03DD281BB0F5117F1ADB0F480078F9
:103C4000B8B90F48B0F90000854212DB0D48B0F951
:103C5000000085420DDC0C48B0F90000844208DB0E
:103C60000A48B0F90000844203DC16B9204602F08D
:103C700079F870BD102C01407402002075020020FC
:103C8000780200207A0200207C0200207E020020C0
:103C900021B1028842F00102028004E002884FF65E
:103CA000FE731A40028070472DE9F04105460C462C
:103CB00000260127608808B9022600E00026A088B7
:103CC000012801D1022700E001272088A0B923891B
:103CD000A28861882846FFF70DFFE188284600F09A
:103CE0003CF823893A4631462846FFF743FFE188EE
:103CF000284600F03BF813E02389A2886188284613
:103D0000FFF738FFE188284600F030F823893A466B
:103D100031462846FFF7EEFEE188284600F01DF800
:103D2000BDE8F0810A46002101894FF68F731940E2
:103D300011430181704702894FF67F731A40028157
:103D400002890A430281704702894FF6F8731A40CC
:103D5000028102890A4302817047028B4FF6F37396
:103D60001A400283028B0A4302837047028B4FF290
:103D7000FF331A400283028B4FF6FF7303EA0123DD
:103D80001A43028370470000002202881D4B9842AC
:103D90000ED01D4B98420BD0B0F1804F08D01B4B7A
:103DA000984205D01A4B984202D01A4B984204D13F
:103DB0004FF68F731A404B881A43174B984207D01F
:103DC000164B984204D04FF6FF431A40CB881A4353
:103DD00002808B8883850B8803850A4B98420BD021
:103DE000094B984208D00E4B984205D00D4B984293
:103DF00002D00D4B984201D10B7A038601238382B6
:103E000070470000002C01400034014000040040D5
:103E100000080040000C004000100040001400406A
:103E20000040014000440140004801404FF6FF714E
:103E3000818000210180C18041800172704721B1E1
:103E4000828942F40052828104E082894DF6FF7338
:103E50001A40828170471AB1838A0B43838202E041
:103E6000838A8B43838270472DE9F04786B00546ED
:103E70000E460024A24600BFA1460027B08900B12B
:103E800000BF2F462C8A4CF6FF700440F088044394
:103E90002C82AC894EF6F3100440B0883189084377
:103EA000718908430443AC81AC8A4FF6FF4004405B
:103EB000B0890443AC8201A8FFF75AFC1F4887422F
:103EC00002D1DDF810A001E0DDF80CA0A88900F413
:103ED000004040B10AEBCA0000EB0A10316849000B
:103EE000B0FBF1F807E00AEBCA0000EB0A103168FA
:103EF0008900B0FBF1F86420B8FBF0F00401200960
:103F0000642101FB1089A88900F4004040B13220EF
:103F100000EBC900B0FBF1F000F00700044308E03B
:103F2000322000EB09106421B0FBF1F000F00F002B
:103F300004432C8106B0BDE8F08700000038014042
:103F400000BFFEE7490050EAC12018BF04204A0D17
:103F500018BF40F0010040F2FF72B2EB515F08BFA2
:103F600040F00200012808BF0520704740F20132EE
:103F700000204FF0E04103F076BB0000024A002031
:103F8000110703F070BB000001FDFFFF10B50446F0
:103F9000D1E9000100F002F8206010BDF8B5044638
:103FA0000D466A4601F08CFD00987E300090002896
:103FB0001FDC002213462046294602F0F5FD18D0EA
:103FC000002140F608004FF0000006462046294632
:103FD00002F0A4FD044640F6080006EA00014FF096
:103FE000000034F0004004BF0220FCF7F5FD20463D
:103FF000F8BD0098FF280DDB0220FCF7EDFD002244
:1040000013462046294602F09BFE8CBF04484FF021
:10401000FF40F8BD20462946BDE8F84002F07EBDCD
:10402000000080FF10B504460A46D4E90003194693
:1040300001F075FDC4E9000110BD30380A2801D235
:10404000012070470020704710B504462046FEF757
:10405000FFFF00BF2046FEF76CFF0028FAD1204684
:10406000FFF706F800BF2046FEF759FF0028FAD1F7
:1040700010BD000000B591B000F0BEF856494020D8
:104080000880564900200870554908705548FFF7C8
:104090008FF855480190554802900A20049000205E
:1040A00003900590802006904000079080000890C3
:1040B0002020099000020A9000200B9001A9494895
:1040C000FFF729F9012202214648FFF71BF90320D7
:1040D000FFF754F801214348FFF75EF80B208DF8F5
:1040E000000002208DF8010000208DF80200012060
:1040F0008DF803006846FFF7A9FA00200C90012014
:104100008DF834008DF835004FF460200E900020BB
:104110000F900A208DF8400033480CA94C38FEF768
:1041200013FF31480723012200214C38FEF734FFEA
:104130002D480723022201214C38FEF72DFF2A4883
:104140000723032200214C38FEF726FF26480723C9
:10415000042201214C38FEF71FFF234807230522C4
:1041600000214C38FEF718FF1F48072306220121C3
:104170004C38FEF711FF1C4807231A4600214C3823
:10418000FEF70AFF18480723082201214C38FEF7E2
:1041900003FF15480723092200214C38FEF7FCFED7
:1041A000114807230A2201214C38FEF7F5FE0E487C
:1041B00001214C38FEF7A8FE0B4801214C38FEF7D0
:1041C00098FE09484C38FFF73FFF09480949006845
:1041D000086011B000BD0000320000206000002027
:1041E00061000020080002404C240140E802002049
:1041F0002C0000207400002070B5134B1A6B1C6C4F
:10420000586B996B4FF07E56B24201DD324603E0A7
:104210000E4EB24200DA32460D4E0E4CA04201DD87
:10422000204603E00C4CA04200DA20460B4CA14291
:1042300001DD214603E00A4CA14200DA21461A635F
:104240005863996370BD000008050020CDCC4C3D3B
:104250000000F0410000FA430000A04100409C46ED
:1042600000007A440848007820B1084800680749EF
:10427000401C08600648007820B1064800680549DF
:10428000401C086070470000610000205C000020B6
:1042900060000020580000200248B0F801000249E8
:1042A000088070477C0400207C00002070B500F07E
:1042B000DFF94A480068002870D04948006847493B
:1042C0000968B0FBF1F201FB120000287FD1002445
:1042D00069E04448005D002863D04248005D102832
:1042E0005ED2DFE800F05D080D121318191A1B24C6
:1042F00029313941495C3C48006800F0A1FA4FE09F
:104300003A48006800F09CFA4AE049E03848006802
:1043100000F096FA44E043E042E041E03548B0F96D
:10432000000002F00FFF054600F08AFA38E032483C
:10433000006800F085FA33E03048007802F01AFF98
:10434000054600F07DFA2BE02D48006802F012FFD0
:10435000054600F075FA23E02A48006802F00AFFDB
:10436000054600F06DFA1BE02748006802F002FFE6
:10437000054600F065FA13E021490968214A1268F0
:104380001144214A1268881802F0F4FE06461F49BB
:1043900002F0A6FD054600F053FA01E017E000BF69
:1043A00000E002E0641C102C93DB00BF184800689A
:1043B000401C174908600846006816490978884279
:1043C00004D100F057FA00201149086000BF0448EA
:1043D0000068401C0249086070BD00008000002099
:1043E000780000208704002098020020A00200200E
:1043F000A402002032000020940200207402002059
:1044000034000020380000203C0000200000404024
:10441000900000208500002070B5874800780F28A4
:104420007ED2DFE800F0080B17E126397D3ACA2971
:104430007D365F7D9600FFF72FFFF6E07F4800781E
:1044400028B901207E490870FFF726FF01E000F03F
:1044500097F9EAE079480078012802DD00F090F948
:1044600006E000207749086077490870FFF714FFDD
:10447000DBE0FFF711FFD8E07048007818B16F4813
:104480000078012802DD00F07BF901E0FFF704FF6E
:10449000CBE0FFF701FFC8E0C7E06C4948690021A5
:1044A00002F0E0FD1BD06448D0F803406849204684
:1044B00002F074FE01D2664C05E06649204602F027
:1044C0006DFF00D2634C64480078012802D00120BF
:1044D0006149087061480460FFF7DEFE01E000F00A
:1044E0004FF9A2E05449D1F8030002F0EFFD044671
:1044F000204602F027FE05464FF07E5102F04EFFA7
:1045000021D8B4F57A7F01DD4FF47A744FF47A70D4
:1045100090FBF4F04B490860642C02DC012003E0BE
:1045200082E0322094FBF0F04D49087000204D49A4
:1045300008704D48007848B904204C4908700120A3
:104540004949087002E0012046490870FFF7A4FEBF
:104550006BE03949D1F803004FF0834102F01EFEB1
:1045600028D23549D1F807004FF0834102F016FEFA
:1045700020D23149D1F8070002F0C4FDC5B22E495E
:10458000D1F8030002F0A2FD38490D54002036494D
:104590000870002408E03548005D18B1601C3249FD
:1045A000087000E002E0641C102CF4DB00BFFFF791
:1045B00073FE01E000F0E4F837E0204800780128BD
:1045C0000FDC1D49D1F8030002F080FD04461A48B3
:1045D000D0F80710204601F0FDF910B1FFF75CFE9E
:1045E00001E000F0CDF820E01349D1F8030002F01B
:1045F0006DFD20B1012807D0022813D10DE001F094
:10460000D1F9FFF749FE0DE001F0F6F910B1FFF71F
:1046100043FE01E000F0B4F804E001F01BF9FFF7FD
:104620003BFE00BF00BF00E000BF00BF05480068C0
:1046300008B900F0AFF870BD7C04002074020020BF
:104640007502002080000020B5020020080500202F
:104650000000C84200401C46B7020020A80200200B
:1046600085000020840000208600002087040020B0
:1046700010B55CE030490978042901DA012100E035
:104680000021084600F064F804462B48007806280C
:1046900048D2DFE800F0030918213440412C02D150
:1046A00001202549087041E0712C08D100202349E0
:1046B00008702349087002201F49087002E000209A
:1046C0001D49087032E01F48047000201E49087020
:1046D00003201949087029E01C481B4909784454F3
:1046E00019480078401C1849087008460078154998
:1046F0000978884202D104200F49087016E010485A
:104700000078A04203D000200B49087002E0052089
:10471000094908700AE009480078A04201D1FFF772
:104720007BFE00BF00200449087000BF00BF01F0FD
:104730007BFD00289ED110BD8B0000208A00002048
:10474000890000208C0000208D0000207C040020C7
:1047500070B5044601F044FEC5B254B10648007875
:104760002844054908700548007809780844034939
:104770000870284670BD0000890000208A000020D3
:104780000248B0F801000249088070477C0400200C
:104790007E00002010B52AE019A001F015FE0020CF
:1047A0001849087018490870032000F033F81748BA
:1047B000008850B1FA2000F02DF81448008800F06D
:1047C0004CF800201149088009E0FB2000F022F895
:1047D0000F48008800F041F800200D4908800A4881
:1047E000007801F071FE0748007801F06DFE07487F
:1047F00000880028D0D1064800880028CCD110BD00
:104800004171430088000020870000207C000020C8
:104810007E00002010B50446204601F055FE0648F3
:104820000078204404490870044800780978084456
:104830000249087010BD0000870000208800002099
:1048400031B56D46002405E015F8010BFFF7E2FFD6
:10485000601CC4B2042CF7D338BD31B56D460024BA
:1048600005E015F8010BFFF7D5FF601CC4B2022C60
:10487000F7D338BD10B51248007801F025FE114875
:10488000007801F021FEFFF785FF0F48007880B91E
:104890000EA001F099FD00200A490870084908702F
:1048A0000B480078FFF7B6FF0A480078FFF7B2FF21
:1048B00004E00020084908600349087010BD0000AA
:1048C00087000020880000208400002041715400EF
:1048D00085000020860000208000002070B55B4825
:1048E000006830B35A48006858490968B0FBF1F2D3
:1048F00001FB1200E8B9574801F066FD5348006813
:104900004FF47A7191FBF0F4224653A15848FBF71B
:10491000DFFC574801F058FD54A1284600F064FD23
:1049200054A001F051FD544801F04EFD534801F0F0
:104930004BFD84E001F054FDC4B2514801680068A9
:10494000401C4F4A10604C484454104600682028D0
:1049500005D110460068401E114608600A244848E8
:10496000006800282ED00A2C01D00D2C2AD14448F2
:104970000068012823DD43A001F026FD424801F034
:1049800023FD00203C493E4A12688854084600F046
:104990009DF805464DB12868FCF774F8364946186D
:1049A00031462846AA68904702E038A001F00CFD85
:1049B0003B48007818B100203149086070BD00F014
:1049C000DBFE3BE0032C02D100F0D6FE36E0082CE3
:1049D00024D12B48006801281ADD002128480068EE
:1049E000801E254A11542FA001F0EEFC224801F050
:1049F000EBFC202001F068FD2AA001F0E5FC1E4838
:104A000001F0E2FC1E480068801E1D49086015E0A8
:104A10001B480068401E1A4908600FE0202C01DB8B
:104A20007E2C08DD072001F04FFD15480068401E70
:104A30001349086002E0204601F046FD00BF01F086
:104A4000F3FB00287FF476AF00BFB7E798000020A3
:104A50008C020020E477000854656C656D65747203
:104A600079204020256420487A0D0A0A00000000C1
:104A7000C70400200A3E2000A7040020ED770008AC
:104A8000940000200D0A0000F1770008436F6D6D5F
:104A9000616E64206E6F7420666F756E6400000036
:104AA000B50200200D3E20002DE9F04105460C46E0
:104AB0002F4626463068FBF7E5FF804631684246C0
:104AC0003868FBF7B1FFBDE8F08100001FB5044670
:104AD0000020019002900390019405480C231322BA
:104AE0000449009001A8FBF777FF04B010BD000057
:104AF000A94A00080077000870B504460D46094829
:104B00000078002803DD08A001F05EFC09E00B48F6
:104B10000078032802D0012000F0DCF808A001F0A2
:104B200053FC70BD7402002045534320616C7265D4
:104B30006164792061726D65640D0A00B70200201E
:104B40004553432061726D65640D0A007CB50546CE
:104B50000C4618480078012804DD1748006801F069
:104B600033FC25E06B4601AA14A12046FBF700FEAA
:104B7000022803D0284600F013FE19E0BDF8040017
:104B80000A2805DBBDF8040041F28831884203DDC4
:104B90000CA001F019FC0BE0BDF80000012804DBBB
:104BA000BDF80000B0F57A7F02DD10A001F00CFC2A
:104BB0007CBD000074020020D40000202568752010
:104BC000256875006672657175656E6379206F750D
:104BD00074206F662072616E67653A203130203D27
:104BE0003E20353030300D0A0000000064757261DF
:104BF00074696F6E206F7574206F662072616E67C6
:104C0000653A2031203D3E20313030300D0A000021
:104C100070B504460D4609480078012804DD0848AF
:104C2000006801F0D1FB08E006A001F0CDFB0020F8
:104C30000D49086001200D49087070BD7402002004
:104C4000D4000020456E746572696E672062696EDB
:104C500061727920636F6D6D616E64206D6F646544
:104C60002E2E2E0D0A00000098000020B502002014
:104C700070B504460D460648007818B105A001F04D
:104C8000A3FB04E00AA001F09FFB01F011FA70BD44
:104C9000740200204553432061726D65642C2064CA
:104CA000697361726D2066697273740D0A00000089
:104CB0005265626F6F74696E6720696E20626F6FF4
:104CC00074206C6F61646572206D6F64652E2E2E8A
:104CD0000D0A000010B5044608480078A0420BD029
:104CE00006480470064850F8242006A10B48FBF73C
:104CF000EFFA0A4801F068FB10BD000075020020C1
:104D00009C000020496E707574206D6F646520737F
:104D1000657420746F2025730D0A0000C7040020FD
:104D20007CB505460C461F480078012804DD1E4866
:104D3000006801F049FB33E06A461CA12046FBF7FE
:104D400017FD012803D0284600F02AFD28E018A10D
:104D50006846FBF782FE28B900F07CFD16A001F042
:104D600033FB1DE01BA16846FBF777FE28B900F076
:104D700019FE1AA001F028FB12E01EA16846FBF7FD
:104D80006CFE50B900F038FE18B11CA001F01CFBFD
:104D900006E020A001F018FB02E0284600F000FD2C
:104DA0007CBD000074020020D40000202538730070
:104DB00064656661756C7400434F4E4649473A20FE
:104DC00064656661756C7473206C6F616465640DF5
:104DD0000A0000007265616400000000434F4E4607
:104DE00049473A207265616420666C6173680D0AF8
:104DF000000000007772697465000000434F4E4662
:104E000049473A2077726F746520666C6173680D4C
:104E10000A000000434F4E4649473A2077726974B2
:104E20006520666C617368206661696C6564210D3C
:104E30000A00000070B504460D460120FFF74AFF46
:104E400001A001F0C1FA70BD45534320646973614C
:104E5000726D65640D0A000038B505460C460A48B7
:104E60000078042804DA0948006801F0ADFA09E086
:104E70006A4607A12046FBF77BFC012802D02846A2
:104E800000F08EFC38BD000074020020D800002025
:104E90002566000070B505460E460FA001F094FA95
:104EA000002415E004EB4401114A52F8210001F0FE
:104EB0008BFA202001F008FB04EB44010C4A02EBC2
:104EC0008101486801F080FA0AA001F07DFA641CB3
:104ED000132CE7D370BD0000417661696C61626C90
:104EE0006520636F6D6D616E64733A0D0A0A000090
:104EF000007700080D0A0000F8B506460D466A4620
:104F000013A12846FBF734FC012803D0304600F0FB
:104F100047FC1BE0002409E00E4951F8240003225D
:104F20006946FBF781FD00B902E0641C052CF3D350
:104F300000BF052C07D229463046FFF77BFFE0B2C1
:104F4000FFF7C8FE02E0304600F02AFCF8BD000082
:104F5000253773009C000020F8B506460D466A46CA
:104F60001AA12846FBF704FC012803D0304600F0C4
:104F700017FC2AE000240FE0164951F82400FBF743
:104F800081FD0746134951F824003A466946FBF76C
:104F90004BFD00B902E0641C042CEDD300BF042CCF
:104FA00010D229463046FFF745FF0B490C700948DF
:104FB00050F8242009A10F48FBF78AF90D4801F0A9
:104FC00003FA02E0304600F0EBFBF8BD2531307308
:104FD00000000000C4000020B702002052756E20BF
:104FE0006D6F64652073657420746F2025730D0ADE
:104FF00000000000C7040020F8B505460C4615481F
:105000000078042804DA1448006801F0DDF91FE094
:1050100012480078032803D011A001F0D5F917E059
:105020006A4618A12046FBF7A3FB012803D02846B7
:1050300000F0B6FB0CE0009801F0B8FE06463246E0
:105040000B4611A11648FBF743F9154801F0BCF9CE
:10505000F8BD000074020020D8000020B702002034
:10506000436F6D6D616E64206F6E6C792076616C3C
:10507000696420696E20736572766F206D6F646558
:105080000D0A000025660000506F736974696F6E29
:105090002073657420746F20252E31660D0A000080
:1050A000C704002038B505460C462248007804287D
:1050B00004DA2148006801F087F93AE06A461FA146
:1050C0002046FBF755FB012803D0284600F068FB7B
:1050D0002FE0BDF800001A49B1F90010884206DB44
:1050E000BDF800001749B1F9001088420DDD1548E0
:1050F000B0F900301248B0F9002013A11A48FBF7AC
:10510000E7F8194801F060F913E01848007803281F
:1051100002D0002015490870BDF8000000F022FE02
:10512000BDF8002012A11048FBF7D2F80E4801F09C
:105130004BF938BD74020020D800002025687500A6
:10514000800200208202002050574D206F7574208D
:105150006F662072616E67653A202564203D3E20AF
:1051600025640D0A00000000C7040020B7020020DB
:1051700050574D2073657420746F2025640D0A000C
:10518000F8B505460C4622480078042804DA214880
:10519000006801F019F939E06A461FA12046FBF7C3
:1051A000E7FA012803D0284600F0FAFA2EE01B495E
:1051B0004869002101F056FF03D119A001F004F95C
:1051C00024E02049009801F0E9FF04D31E4900982B
:1051D00002F0E4F803D21DA001F0F6F816E024482E
:1051E0000078012802D00120214908702149009847
:1051F0000860009801F0DAFD064632460B461EA113
:105200002248FBF765F8214801F0DEF8F8BD000000
:1052100074020020D8000020256600000805002048
:1052200043616C6962726174696F6E207061726152
:105230006D65746572732072657175697265640D50
:105240000A0000000000C84200401C4652504D2099
:105250006F7574206F662072616E67653A20313019
:1052600030203D3E2031303030300D0A000000004B
:10527000B7020020A802002052504D207365742010
:10528000746F2025362E30660D0A0000C7040020FA
:10529000F0B589B006460D4601AA26A12846FBF7BF
:1052A00067FA012803D0304600F07AFA40E023A1E3
:1052B00001A8FBF7D2FB40B9012403E0204600F02F
:1052C00027FA641C302CF9DB32E001A800F080FAE8
:1052D0000446002C08DA01AA1AA12248FAF7F8FFBE
:1052E000204801F071F823E001A8FBF7CBFB28442C
:1052F000471C6A461CA13846FBF73AFA012814D12C
:105300001A480078012808DD194801681548FAF79D
:10531000DFFF144801F058F80AE02046009900F039
:1053200059FB204600F0F4F902E0204600F0F0F9C5
:1053300009B0F0BD25333273000000006C6973744E
:10534000000000005345543A206E6F207375636867
:1053500020706172616D6574657220272573270D59
:105360000A000000C7040020256600007402002027
:10537000D400002070B504460D460948007818B9DD
:1053800008A001F021F80AE005480078012803DDB3
:105390000BA001F019F802E00FA001F015F870BDA4
:1053A000740200204553432064697361726D656423
:1053B0002C2061726D2066697273740D0A00000002
:1053C00045534320616C72656164792072756E6E1D
:1053D000696E670D0A0000004553432073746172C3
:1053E0007465640D0A0000002DE9FC4781468A4679
:1053F0003DA441A543A646484649097850F82130C6
:1054000045A231464748FAF763FF464800F0DCFF03
:1054100045484649097850F8213045A2314641486F
:10542000FAF756FF3F4800F0CFFF44484449097857
:1054300050F8213043A231463A48FAF749FF39483B
:1054400000F0C2FF4248006801F0B0FC41A2CDE983
:10545000000121463348FAF73BFF324800F0B4FF21
:105460004048006801F0A2FC3FA2CDE900012146BE
:105470002C48FAF72DFF2B4800F0A6FF3B480068A8
:1054800001F094FC3AA2CDE9000121462548FAF743
:105490001FFF244800F098FF3848006801F086FCA0
:1054A00037A2CDE9000121461E48FAF711FF1D4839
:1054B00000F08AFF3548006801F078FC34A2CDE99D
:1054C000000121461748FAF703FF164800F07CFF59
:1054D0003248037832A229461248FAF7F9FE1148F9
:1054E00000F072FFBDE8FC87252D31327325313085
:1054F0002E32660D0A000000252D31327325313021
:10550000640D0A00252D313273253130730D0A00E8
:105510009C00002075020020494E505554204D4FEC
:1055200044450000C7040020C4000020B70200204A
:1055300052554E204D4F444500000000B000002061
:105540007402002045534320535441544500000049
:105550009402002050455243454E542049444C4546
:1055600000000000A402002052504D0098020020CC
:10557000414D505320415647000000009C0200203E
:10558000414D5053204D415800000000A002002022
:1055900042415420564F4C5453000000B4020020A6
:1055A00044495341524D20434F44450070B5044691
:1055B0000D4608480078022804DA0748006800F021
:1055C00003FF05E00120FFF785FB04A000F0FCFECF
:1055D00070BD000074020020D80000204553432015
:1055E00073746F7070696E670D0A000038B50546F8
:1055F0000C466A4615A12046FBF7BAF8012803D0ED
:10560000284600F0CDF820E0BDF80000642803DD56
:105610000FA000F0D9FE18E0BDF80000002811DD51
:10562000BDF800004FF47A7191FBF0F01149086069
:10563000114800F0C9FE114800F0C6FE0A2000F033
:1056400043FF02E000200B49086038BD2568750063
:105650004672657175656E6379206F7574206F662B
:105660002072616E67653A2030203D3E2031303037
:105670000D0A000098000020E4770008E877000891
:1056800070B504460D46044A04A10848FAF720FE06
:10569000064800F099FE70BD97040020455343333F
:1056A00032207665722025730D0A0000C7040020A1
:1056B00010B50C4800F088FE0B4800F085FE00F0A5
:1056C0002BFA0446234609A20AA10C48FAF700FE69
:1056D00000210846FFF7D4FF09A000F075FE00F096
:1056E0004BF810BDE4770008E8770008312E352E1E
:1056F0003000000025732E25640000009704002070
:105700000D0A434C492072656164792E0D0A000030
:105710002DE9F041044610A5124850F824202946EE
:105720001148FAF7D5FD104800F04EFE0F4951F828
:10573000240001F03BFB06460B460D4850F82410B0
:1057400032460948FAF7C4FD074800F03DFE09A0BB
:1057500000F03AFEBDE8F081252D323073203D2067
:1057600000000000DC000020C70400200805002025
:105770009C0100200D0A000010B505A000F024FED9
:1057800020210548FBF7CFF900200449086010BD2F
:105790000D0A3E2000000000A70400209400002015
:1057A00010B5044607A000F00FFE206800F00CFEC4
:1057B000202000F089FE606800F006FE03A000F0E3
:1057C00003FE10BD75736167653A20000D0A000085
:1057D00070B50546002410E00A4951F82400FBF793
:1057E00051F90646074951F8240032462946FBF78D
:1057F0001BF908B9204670BD641C302CECDB4FF05F
:10580000FF30F8E7DC00002010B500F023F80F4867
:105810000468204620F00041C1F1FF41C90F11B1D9
:1058200000F0EAF810E00A480168204601F0B6FDF1
:1058300002D800F0B7F807E005490868214601F0F2
:10584000ADFD01D200F0D8F810BD000000FC00084A
:105850000805002010B53848384908600020486025
:10586000374888604FF07A50C86036480861002099
:1058700048618861C861086248628862C8624FF006
:105880007C50086330484863304888633048C863B8
:105890003048086430484864304888643048C864F8
:1058A000304808654865304888653048C8653048E4
:1058B000086630484866304888663048C8663048D0
:1058C000086730484867304888670020C867214823
:1058D000C1F880002D48C1F884000020C1F888007C
:1058E0004FF07E50C1F88C002948C1F8900029483B
:1058F000C1F894000020C1F898002748C1F89C0026
:105900000020C1F8A000C1F8A4004FF07C50C1F8FD
:10591000A8004FF08340C1F8AC002048C1F8B000A7
:105920000020C1F8B4001448C1F8B8001C48C1F800
:10593000BC0000F045F810BD4E62C03F08050020D5
:105940000000E14752491D3A0000484200803B46B2
:105950000000F04100002041CDCC8C3F0000964279
:10596000000040420000A041000060410080094565
:105970000050C34600803B4400007A4400C0F3441A
:1059800000A00C45008089440020CB459A99193E1F
:10599000000016446666663F00007A46CDCC4C3D5A
:1059A0000000B44310B5C02203490448FBF789F84E
:1059B00000F006F810BD000000FC000808050020FB
:1059C00010B5FEF719FC00F0D1FB00F035FA00F03D
:1059D00021FD10BD70B504460D460026002C07DBE6
:1059E000302C05DA034840F82450FFF7E9FF012680
:1059F000304670BD080500202DE9F041002640F238
:105A0000E73000F07CFB07460120FDF739FF01E09D
:105A100000F074FB2120FDF715FF0128F8D1FDF7F8
:105A20001FFD3420FDF796FC1548FDF799FC05464F
:105A3000042812D100240AE0124A1159104AA01871
:105A4000FDF7D8FC0546042800D004E0241D042DF1
:105A500001D1C02CF0D300BF0126FDF7C1FC00F03E
:105A60004DFB0020FDF70CFF00BF2120FDF7EAFEF3
:105A70000128FAD0384600F042FB3046BDE8F081FC
:105A800000FC000808050020F8B506460D46082170
:105A90000120FAF709FC04462660A580A088216849
:105AA0004861ADF8005003208DF8020010208DF8F9
:105AB000030069463046FDF7F2FC2046F8BD0000C1
:105AC00010B5144600222260114A21F0004393428F
:105AD000A8BF10BD53EA000208BF10BDB3F5801F78
